:400000000080002011000000C5200000C520000080B500AF024A034B1B68136002F086F8BC760040FA46004010B5054C237833B9044B13B10448AFF300800123237010BDCD
:400040009082FF1F00000000F8530000084B10B51BB108490848AFF300800848036803B910BD074B002BFBD0BDE81040184700BF000000009482FF1FF8530000C880FF1FDA
:400080000000000080B400AF044A044B1B6843F00503136000BFBD4680BC704710E000E080B400AF044A044B1B6843F00203136000BFBD4680BC704710E000E080B483B070
:4000C00000AF78607B68002B03D07B68B3F1807F01D3012304E0054A7B68013B1360002318460C37BD4680BC704700BF14E000E080B400AF62B600BFBD4680BC704700BF99
:4001000080B400AF72B600BFBD4680BC704700BF90B400AFEFF311831C4623461846BD4690BC704780B483B000AF78607B6883F3118800BF0C37BD4680BC7047B0B400AFBD
:40014000124B1B68DCB200250F2C14D9103C24F0030303F1604303F564431A68E30003F01803E02101FA03F31A40E30003F0180322FA03F504E00F2C02D1054B1B681D0E74
:400180002B461846BD46B0BC704700BF04ED00E020ED00E080B500AF04F083FC00BF80BD80B400AF054B1B68002B14BF01230023DBB21846BD4680BC704700BF6889FF1FD0
:4001C00080B400AF044B1B68013B034A136000BFBD4680BC704700BF6889FF1F80B400AF044B1B680133034A136000BFBD4680BC704700BF6889FF1F80B500AF03F022FEA8
:4002000000BF80BD684620F007018D4681B583B000AF00237B60FFF773FFFFF779FF7860FFF78CFF03461846FFF77CFFFFF7D6FF124B1B68012B01D104F064FCFFF758FF82
:4002400000F01EF8FFF75CFF7868FFF76BFFFFF7D3FFFFF7B5FFFFF7A3FF0346002B03D104F059FCFFF796FFFFF742FF00BF0C37BD46BDE881408546704700BF6889FF1FCF
:4002800080B500AF002003F0D9F800BF80BD00BF80B500AF62B645F6C050FFF70FFFFFF7FFFE02F095F900F011FA642000F0C2FA00214FF6FF7000F0A3FB1F230A220A21D6
:4002C0000A2000F0BDFC034800F0BEFD002004F0DDF8FBE7EC83FF1F80B500AF0D4802F023FA04F091FBFFF7CDFE0B4800F07CFEFA226421002002F00BFD022002F058FC74
:40030000012002F055FC032002F052FC04F0A6F900BF80BDFC530000E885FF1F80B5ADF5926D02AF012003F07BFC07F58C631946022003F087F9D7F86034184603F016F9D9
:40034000C82004F0CFFE0346C7F87834D7F87834002B02D13C4802F0E7F90023C7F884340BE0D7F88434D7F87824134400221A70D7F884340133C7F88434D7F88434C72B2C
:40038000EFDD324800F0F6FD0346A7F876340023C7F880340023C7F87C341AE02B4800F0B3FD03461946D7F880345A1CC7F880241846D7F8782402441846D7F8783403441A
:4003C0001B780B44DBB21370D7F87C340133C7F87C34B7F87624D7F87C349A42DEDC07F25443184601F06CFA0023C7F87034D7F8780404F067FF014607F5967207F2544043
:400400003223009313460A46D7F8781401F06CFAC7F870040023C7F86C340023C7F8683407F596713A4607F24C430193D7F8783400930B46D7F87014054800F03FFE034632
:4004400087F867346EE700BF14540000EC83FF1FE885FF1F80B582B000AF1A4800F014FE0346002B28D0FF23FB71164BB3F8263339460022134800F093FF0346FB71BB788F
:4004800018B2FB7819B200230A2200F0D9FB3B7918B27B7919B27B880A2200F0D1FB97F9073013F1090F07D1074802F03DF902220221044800F0CEFD04F0D0F800BF0837BF
:4004C000BD4680BDE885FF1F3054000080B400AF00BFFDE7684620F007018D4681B583B000AF00237B60FFF70BFEFFF711FE7860FFF724FE03461846FFF714FEFFF76EFE73
:40050000124B1B68012B01D104F0FCFAFFF7F0FD00F01EF8FFF7F4FD7868FFF703FEFFF76BFEFFF74DFEFFF73BFE0346002B03D104F0F1FAFFF72EFEFFF7DAFD00BF0C3765
:40054000BD46BDE881408546704700BF6889FF1F80B582B000AF02F0BDF80346FB71FB791946074800F08CFC97F90730002B03D10121022003F0A8F900BF0837BD4680BDDA
:40058000EC83FF1F80B582B000AF1D4B9B88002B32D01B4B1B885A1C91B2194A11805B00174A134406337B60154B1B88154AA2FB03125209642101FB02F29B1A9AB2104BC3
:4005C0001A800F4B9B88013B9AB20D4B9A807B681B78002B02D0012B04D007E0002001F0A1FF03E0012001F09DFF00BF7B685B78184601F04DFF00E000BF0837BD4680BD20
:40060000C482FF1F1F85EB51B0B5ACB000AF03460A46FB711346BB71284B9B88632B1DD903233B72264B1A6807F1080301331146184604F03FFE07F108031133214A1C466B
:4006400015460FCD20606160A260E36007F10803184600F0D7FB6FF007032AE0174B5B885A1C91B2154A51801A46144953000B44F9799971114953000B44BA79DA710F4B4A
:400680005B88114AA2FB03125209642101FB02F29B1A9AB2094B5A80084B9B8801339AB2064B9A80054B9B88012B01D1FFF76AFF00231846B037BD46B0BD00BFC482FF1F1F
:4006C000CC80FF1FA45900001F85EB5180B582B000AF484B80221A80474BA0221A80474B00221A70464B00221A80464B00221A80454B01221A70454B4FF6FF721A80444B5C
:4007000000221A80434B01221A70434B00221A60424B00221A70414B1A78414B1A70404B1A78404B1A703F4B1A783F4B1A703F4B00221A803D4B00225A803C4B00229A803C
:4007400001F06CFE012001F00BFF642001F0BEFD002001F005FF642001F0B8FD012001F0FFFE142001F0B2FD01210020FFF74CFF322001F0ABFD11210020FFF745FF78201E
:4007800001F0A4FD2A4B7B607B685A1C7A601B78FB701AE07B685A1C7A601B7819460020FFF732FF7B685A1C7A601B78BB7007E07B685A1C7A601B7819460120FFF724FF89
:4007C000BB785A1EBA70002BF2D1FB785A1EFA70002BDFD1022000F097F8002000F028F901F0DEFF642002F06BF800BF0837BD4680BD00BFB282FF1FB482FF1FB182FF1F99
:40080000B682FF1FB882FF1FB082FF1FBA82FF1FBC82FF1FBE82FF1FC082FF1FAD82FF1FAC82FF1FAE82FF1FAF82FF1FC482FF1F4854000080B582B000AF0346FB71FB79D1
:40084000642B01D96423FB71FB79184602F038F800BF0837BD4680BD90B583B000AF0446084611461A462346FB710346BB710B467B7113463B712A210020FFF7C5FE0021A3
:400880000120FFF7C1FE1E4B1A78FB791344DBB219460120FFF7B8FE00210120FFF7B4FE174B1A787B791344DBB219460120FFF7ABFE2B210020FFF7A7FE00210120FFF7CF
:4008C000A3FE104B1A78BB791344DBB219460120FFF79AFE00210120FFF796FE094B1A783B791344DBB219460120FFF78DFE2C210020FFF789FE00BF0C37BD4690BD00BFFE
:40090000AE82FF1FAF82FF1F80B582B000AF0346FB7136210020FFF777FEFB7903F00303DAB2304B1A702F4B1B78032B56D801A252F823F0450900006B09000091090000AA
:40094000B7090000C2210120FFF75EFE264BA0221A80264B80221A80254B1A78254B1A70254B1A78254B1A7038E0A2210120FFF74BFE1E4BA0221A801B4B80221A801C4BE6
:400980001A781E4B1A701C4B1A781A4B1A7025E008210120FFF738FE134BA0221A80134B80221A80124B1A78124B1A70124B1A78124B1A7012E062210120FFF725FE0B4B4A
:4009C000A0221A80084B80221A80094B1A780B4B1A70094B1A78074B1A7000BF00BF0837BD4680BDB182FF1FB482FF1FB282FF1FAC82FF1FAE82FF1FAD82FF1FAF82FF1F5A
:400A000080B483B000AF03460A46FB801346BB80054AFB881380054ABB88138000BF0C37BD4680BC704700BFBA82FF1FBC82FF1F80B584B002AF0346FB80084BB3F9002004
:400A4000074B1B8819B2FB8800930B460021002000F008F800BF0837BD4680BDB282FF1FB482FF1F90B585B000AF0446084611461A462346FB800346BB800B467B801346B5
:400A80003B803C4BB3F90030B7F906209A426DDAB7F90430384A1288934267DAB7F90620B7F902301344013B324AB2F90020934207DB304BB3F900309AB2FB88D31A9BB260
:400AC0007B80B7F90420B7F900301344013B2A4A1288934205DB284B1A88BB88D31A9BB23B80FB88D8B2BB88D9B2FB88DAB27B88DBB21344DBB2013BDCB2BB88DAB23B88EA
:400B0000DBB21344DBB2013BDBB22246FFF7A4FE3B8C1B0A9BB2FB733B8CBB73012001F001FD3B88BB801CE07B88FB800FE0FB7B19460220FFF768FDBB7B19460220FFF769
:400B400063FDB7F906309BB2013B9BB2FB80B7F90630002BEBDCB7F904309BB2013B9BB2BB80B7F90430002BDEDC00E000BF1437BD4690BDB282FF1FB482FF1F90B585B0EE
:400B800000AF0446084611461A462346FB800346BB800B467B8013463B80274BB3F90030B7F906209A4243DAB7F90430234A128893423DDAB7F90420B7F902301344013B32
:400BC0001E4A1288934205DB1C4B1A88BB88D31A9BB27B80FB88D8B2BB88D9B2FB88DCB2BB88DAB27B88DBB21344DBB2013BDBB22246FFF731FE3B881B0A9BB2FB733B88D2
:400C0000BB73012001F08EFC09E0FB7B19460220FFF7FAFCBB7B19460220FFF7F5FCB7F902309AB2013A92B27A80002BEDD100E000BF1437BD4690BDB282FF1FB482FF1F10
:400C400090B585B002AF0446084611461A462346FB800346BB800B467B8013463B80BA887B88D31A9BB219B27B885B009BB201339BB21AB23B88B7F90600FFF77FFFB7F953
:400C80000220B7F90410B7F906003B88019300230093032300F004F800BF0C37BD4690BD90B587B000AF0446084611461A462346FB800346BB800B467B8013467B707B88B2
:400CC000C3F101039BB2FB820123BB827B881A46D203D31A5B009BB27B8200233B827B88FB8183E0B7F91630002B0EDBB7F90E309BB2013B9BB2FB817B8A02339BB27B82B7
:400D0000FA8A7B8A13449BB2FB82B7F910309BB201339BB23B82BB8A02339BB2BB82FA8ABB8A13449BB2FB827B7803F00103002B2BD0FA883B8A13449BB218B2BA88FB8915
:400D4000D31A9BB219B2FB895B009AB23B8D13449BB201339BB21AB2BB8DFFF70FFFFA88FB8913449BB218B2BA883B8AD31A9BB219B23B8A5B009AB23B8D13449BB20133B2
:400D80009BB21AB2BB8DFFF7F9FE7B7803F00203002B2BD0FA883B8AD31A9BB218B2BA88FB89D31A9BB219B2FB895B009AB23B8D13449BB201339BB21AB2BB8DFFF7DEFEC0
:400DC000FA88FB89D31A9BB218B2BA883B8AD31A9BB219B23B8A5B009AB23B8D13449BB201339BB21AB2BB8DFFF7C8FEB7F91020B7F90E309A42FFF675AF00BF1C37BD46DC
:400E000090BD00BF80B584B000AF7860E923FB737B680133184601F087FC094801F084FC7B681133184601F07FFC064801F07CFC0023FB7397F90F3018461037BD4680BDA4
:400E4000F8590000E459000080B483B000AF78607B680022A3F8F4217B680022A3F8F6217B680022A3F8F8217B684FF4FA72A3F8FA21002318460C37BD4680BC704700BF10
:400E800080B584B000AF78600B46FB70FF23FB73002003F057F87B68B3F8F8311A467B68B3F8FA31013B9A4220DA7B68B3F8F6315A1C91B27A68A2F8F611124AA2FB0312B3
:400EC00052094FF4FA7101FB02F29B1A9BB219467B68FA785A547B68B3F8F83101339AB27B68A3F8F8210023FB7301E0FA23FB73002003F0E9FC97F90F3018461037BD465B
:400F000080BD00BFD34D621080B584B000AF78602D23FB73002003F015F87B68B3F8F831002B1DD07B68B3F8F4315A1C91B27A68A2F8F4110E4AA2FB031252094FF4FA7186
:400F400001FB02F29B1A9BB21A467B689B5CFB737B68B3F8F831013B9AB27B68A3F8F821002003F0B1FCFB7B18461037BD4680BDD34D621080B584B000AF78604723FB728D
:400F8000002002F0DFFF7B68B3F8F8311A467B68B3F8FA3113447A68B2F8FA2193FBF2F102FB01F29B1A3B813B89FB600CE07A68FB6813441B78FB720A4B1B78FA7A9A42C2
:400FC00006D0FB68013BFB60FB68002BEFDC00E000BF002003F078FC3B8918461037BD4680BD00BF9283FF1F80B584B000AF78607B680022A3F820237B680022A3F822234F
:401000007B680022A3F824237B686422A3F826237B68022283F82A237B68022283F829230023FB6008E07A68FB68DB00134400225A60FB680133FB60FB68632BF3DD044827
:4010400000F0F0FD002318461037BD4680BD00BF1489FF1F80B485B000AF78600B46FB701346BB700023FB737B68BA7883F829237B68FA7883F82A2397F90F3018461437DF
:40108000BD4680BC704700BF80B485B000AF78600023FB730023FB737B6893F82933002B06D17B6893F82A33002B01D10123FB73FB7B18461437BD4680BC704780B58CB0BD
:4010C00000AFF860B9607A603B60FF23FB740023FB620023BB6200237B6241E0FB6A1B013A6813441B78042B0DD0FB6A1B013A6813441B78022B06D0FB6A1B013A68134446
:401100001B78082B26D100233B62FB6A1B013A6813445B68FB6112E0BA6A13469B0013449B001A467B681A443B6A591C3962F969B86B01440978D154FB690133FB61FB6A7E
:401140001B013A6813449A68FB699A42E4DCBB6A0133BB62FB6A0133FB627B6A01337B627A6ABB689A42B9DBBB68013BBB600023BB6100237B6192E07A6913469B00134427
:401180009B001A467B6813441B78632B1FD17B695A1C13469B0013449B001A467B6813444449184604F07CF80346002B01D10123BB617B695A1C13469B0013449B001A4696
:4011C0007B6813441B78622B01D10223BB617A6913469B0013449B001A467B6813441B78642B59D1BB69012B03D1FB6B1F225A800BE0BB69022B04D1FB6B4FF478425A80E0
:4012000003E0FB6B40F2FF725A807A6913469B0013449B0028337A681344184603F032FF0346DAB2FB6B9A707A6913469B0013449B003C337A681344184603F023FF034697
:40124000DAB2FB6BDA707A6913469B0013449B0050337A681344184603F014FF0346DAB2FB6B1A717A6913469B0013449B0064337A681344184603F005FF0346DAB2FB6B5A
:401280005A7105230022F96BF86800F015F800220021F868FFF7DEFE7B6902337B617A69BB689A42FFF668AF97F9133018463037BD4680BDFC59000080B588B000AFF8605F
:4012C000B96011461A460B46FB711346BB80FB68B3F82433632B02D96FF007035AE0BB88184603F0FFFE0346BB61BB69002B02D0BB68002B02D16FF003034BE0BB687B6195
:40130000BB693B610023FB610AE0FB693A691344FA6979690A4412781A70FB690133FB61BA88FB699A42F0DABB69002B31D0FB68B3F82233FA68DB001344BA695A60FB68B8
:40134000B3F822331946FB68BA8823F83120FB68B3F822330133114A82FB03125111DA178A1A642101FB02F29A1A92B2FB68A3F82223FB68B3F8243301339AB2FB68A3F8EF
:401380002423FB68FA7983F82823FB68BA88A3F82623002318462037BD4680BD1F85EB5180B588B000AFF860B96011461A460B46FB711346BB80FB68B3F82433002B02D1D1
:4013C0006FF0080348E0BB68BB61FB68B3F82033FA68DB0013445B687B610023FB610AE0FB69BA691344FA6979690A4412781A70FB690133FB61BA88FB699A42F0DAFB68F7
:40140000B3F82033FA68DB0013445B68184603F071FEFB68B3F82033FA68DB00134400225A60FB68B3F8203301330D4A82FB03125111DA178A1A642101FB02F29A1A92B2E4
:40144000FB68A3F82023FB68B3F82433013B9AB2FB68A3F82423002318462037BD4680BD1F85EB5180B487B000AFF860B9607A60FB685A687B689A4201D3002314E0FB686A
:401480005B68591CFA6851601B01BA6813447B617B694FF0FF329A607B699A687B695A607B690022DA607B6918461C37BD4680BC704700BF80B485B000AFF8607A603B602F
:4014C0000B46FB72FB68FA7A1A70FB687A685A60FB683A689A60FB680022DA6000BF1437BD4680BC704700BF80B586B000AFF860B9607A603B60FB681B687B6134E0FB6818
:401500001B68BA6813441B78202B3AD0202B06DC092B0FDB0A2B34DD0D2B32D00AE03A2B2FD03A2B02DC2C2B2BD003E05D2B28D07D2B26D000BFFB681B68BA6813441B7867
:401540001F2B06D9FB681B68BA6813441B787E2B05D97A69FB681A606FF0010338E0FB681B685A1CFB681A60FB681A687B689A4208D2FB681B68BA6813441B78002BBED12B
:4015800000E000BF3B68002B06D1FB681B685A1EFB681A6000231BE03A6A3968F868FFF761FF38613B69002B05D17A69FB681A604FF0FF330CE0FB681B687A6908213869A5
:4015C000FFF778FFFB681B685A1EFB681A60002318461837BD4680BD80B588B000AFF860B9607A603B60FB681B68BB61FB681B685A1CFB681A604CE1FB681B68BA6813446A
:401600001B78FB75FB7D222B1DD13B68002B01D1002350E1BA6A3968F868FFF723FF38613B69002B05D1BA69FB681A604FF0FF3341E1BB695A1CFB681B6804213869FFF7B6
:4016400039FF002337E1FB7D5C2B40F01D81FB681B685A1C7B689A4280F01681FB681B685A1CFB681A60FB681B68BA6813441B78223B532B00F2018101A252F823F000BFCF
:40168000871800007B1800007B1800007B1800007B1800007B1800007B1800007B1800007B1800007B1800007B1800007B1800007B180000871800007B1800007B180000E2
:4016C0007B1800007B1800007B1800007B1800007B1800007B1800007B1800007B1800007B1800007B1800007B1800007B1800007B1800007B1800007B1800007B180000BA
:401700007B1800007B1800007B1800007B1800007B1800007B1800007B1800007B1800007B1800007B1800007B1800007B1800007B1800007B1800007B1800007B18000079
:401740007B1800007B1800007B1800007B1800007B1800007B1800007B1800007B1800007B1800007B180000871800007B1800007B1800007B1800007B1800007B1800002D
:40178000871800007B1800007B1800007B180000871800007B1800007B1800007B1800007B1800007B1800007B1800007B180000871800007B1800007B1800007B180000D5
:4017C000871800007B18000087180000D1170000FB681B685A1CFB681A600023FB6137E0FB681B68BA6813441B782F2B06D9FB681B68BA6813441B78392B21D9FB681B6800
:40180000BA6813441B78402B06D9FB681B68BA6813441B78462B13D9FB681B68BA6813441B78602B06D9FB681B68BA6813441B78662B05D9BA69FB681A606FF001033AE0C9
:40184000FB681B685A1CFB681A60FB690133FB61FB69032B0BDCFB681A687B689A4206D2FB681B68BA6813441B78002BB8D1FB681B685A1EFB681A6006E0BA69FB681A607F
:401880006FF0010317E000BFFB681B685A1CFB681A60FB681A687B689A4207D2FB681B68BA6813441B78002B7FF4A6AEBA69FB681A606FF0020318462037BD4680BD00BF5D
:4018C00080B483B000AF78607B6800221A607B6800225A607B684FF0FF329A6000BF0C37BD4680BC704700BF80B58CB002AFF860B9607A603B60FB685B683B625FE1FB684A
:401900001B68BA6813441B78FB77FB7F2C2B00F0DD802C2B10DC0D2B00F041810D2B04DC093B012B00F2198139E1202B00F03781222B00F0A18010E15D2B43D05D2B05DCE7
:401940003A2B00F0BC805B2B05D006E17B2B02D07D2B37D001E13B6A01333B623B68002B00F01F813A6B3968F868FFF77BFDB861BB69002B02D14FF0FF334FE1FB689B6861
:40198000B3F1FF3F0AD0FB689B681B013A6813443B613B69DB685A1C3B69DA60FB7F7B2B01D1012200E00222BB691A70FB681B681A46BB695A60FB685B68013B1A46FB6809
:4019C0009A60F7E03B68002B00F0ED80FB7F7D2B01D1012300E00223BB77FB685B68013B7B6224E07B6A1B013A681344BB61BB695B68B3F1FF3F17D0BB699B68B3F1FF3F8A
:401A000012D1BB691B78BA7F9A4202D06FF0010304E1FB684FF0FF329A60FB681B6801331A46BB699A6005E07B6A013B7B627B6A002BD7DA7B6AB3F1FF3F19D16FF00103C0
:401A4000ECE07B6A1B013A681344BB61BB695B68B3F1FF3F09D0BB699B68B3F1FF3F04D1FB687A6A9A6000BFA4E07B6A013B7B627B6A002BE5DA9DE03B6B00933B687A6878
:401A8000B968F868FFF7A8FD78617B69002B01DA7B69C3E03B6A01333B62FB689B68B3F1FF3F00F082803B68002B7ED0FB689B681B013A681344DA680132DA6075E0FB6812
:401AC0005B68013B1A46FB689A6073E03B68002B6DD0FB689B68B3F1FF3F68D0FB689B681B013A6813441B78022B60D0FB689B681B013A6813441B78012B58D0FB685B6859
:401B0000013B7B6225E07B6A1B013A6813441B78022B06D07B6A1B013A6813441B78012B14D17B6A1B013A6813445B68B3F1FF3F0CD07B6A1B013A6813449B68B3F1FF3FFF
:401B400004D1FB687A6A9A6000BF30E07B6A013B7B627B6A002BD6DA29E03B6B00933B687A68B968F868FFF7BFFC78617B69002B01DA7B6952E03B6A01333B62FB689B6814
:401B8000B3F1FF3F15D03B68002B12D0FB689B681B013A681344DA680132DA6009E000BF08E000BF06E000BF04E000BF02E000BF00E000BFFB681B685A1CFB681A60FB6811
:401BC0001A687B689A4207D2FB681B68BA6813441B78002B7FF493AE3B68002B1DD0FB685B68013B7B6215E07B6A1B013A6813445B68B3F1FF3F0AD07B6A1B013A68134498
:401C00009B68B3F1FF3F02D16FF0020306E07B6A013B7B627B6A002BE6DA3B6A18462837BD4680BD80B483B000AF78607B6800229A877B680022DA877B680022A3F84020B8
:401C40007B680A22A3F842207B68002283F84420002318460C37BD4680BC704780B582B000AF786039603A680021786803F055FA00BF0837BD4680BD80B584B000AFF860A0
:401C8000B9607A607A68B968F86803F03BFA00BF1037BD4680BD00BF80B483B000AF0346FB71FEE780B487B000AF7860396000233B6100237B6127E07B699B007A681344E9
:401CC0001B68BB60BB68FB73BB6823F0FF03BB6014E03B695B003A6813441B781A46BB68134419463B695B003A6813445B780B703B6901333B61FB7B013BFB73FB7B002B2F
:401D0000E7D17B6901337B617B69282BD4D900BF1C37BD4680BC704780B582B000AF3C4B00221A803B4B58221A703B4B00221A803A4B58221A703A4B00221A80394B58221E
:401D40001A70394B13221A80384B18221A70384B19221A80374B18221A70374B02221A704FF0402308221A70344B03221A70344B344A1278D2B21A70334B08221A80334B98
:401D800041F251221A800023FB7019237B6014E0FB785B00DAB22E4B1B78DBB203F00103DBB21343DBB203F00303FB704FF4F07002F05AFE7B68013B7B607B68002B02D0C5
:401DC000FB78032BE4D17B68002B02D10320FFF763FF204B4FF480721A801E4B07221A701D4B00221A701D4B48221A70194B00221A701B4B02221A701A4A1A4B1B78DBB25E
:401E000043F01F03DBB2137000BF0837BD4680BD80400040824000408440004086400040884000408A4000408C4000408E40004090400040924000400043004000420040A0
:401E4000A14600400801004922420040204200402542004004400040064000400840004001400040A243004080B582B000AF1F4B1B78FB711E4B1B78BB711E4B1B787B7135
:401E80001D4AFB7903F00703DBB213701B4AFB791B09DBB21370164ABB7943F00303DBB21370144A7B7943F00303DBB21370144B07221A70134B40221A70134B40221A700F
:401EC000124B70221A70124B20221A700A2000F01FFA084A7B791370054ABB7913700D4B44221A7000BF0837BD4680BDCF010049F8460040F94600406E5800406F58004095
:401F00000D5100400159004003590040205B0040235B00407658004080B586B000AF72B60023FB7513E0FA7D13465B0013445B004C4A13443B613B691A683B699B889BB2DE
:401F400019461046FFF78AFEFB7D0133FB75FB7D072BE8D90023FB751CE0FA7D13469B0013445B00404A1344FB60FB681B68BB60FB685B687B60FB681A7A5B7A1B0213437E
:401F80007B807B881A467968B868FFF775FEFB7D0133FB75FB7D022BDFD934494FF09040FFF780FE04213248FFF758FE042231493148FFF761FE314A304B1B78DBB243F03E
:401FC0000203DBB213702E4A2D4B1B78DBB243F00203DBB213702B4A2A4B1B78DBB243F04003DBB21370284A274B1B78DBB243F01003DBB21370082224492548FFF73CFE56
:402000000A2224492448FFF737FE082223492448FFF732FE082223492348FFF72DFE082222492348FFF728FE224A224B1B78DBB243F00803DBB213701F4B61221A70FFF756
:402040006BFE1D4B81221A701C4B01221A70FFF70BFF0E220B491A48FFF70EFE00BF1837BD4680BD005A0000305A0000A400004800760040940E0048087600400350014056
:4020800013500140A0430040C2430040680E004802510040700E0048C05100407C0E004812510040840E0048225100408C0E0048325100402243004000480040040008408C
:4020C000B043004080B500AF02F0E0FF03461B680C2B00D1FEE7FEE780B584B000AF7860104B1A687B6813441A460F4BD31AB3F5006F09DC0B4B1B68FB600A4B1A687B68C2
:402100001344084A136007E002F0C0FF02460C2313604FF0FF33FB60FB6818461037BD4680BD00BFD080FF1F589BFF1F80B586B000AF224B7B61224B3B61204B7B6135E0E7
:402140003B691B68FB603B695B68BB603B699B683B6000237B600CE0FB681A68BB681A60BB680433BB60FB680433FB607B6804337B607A683B689A42EED13B69DB683B60AC
:4021800000237B6008E0BB6800221A60BB680433BB607B6804337B607A683B689A42F2D13B6910333B617B69013B7B617B69002BC6D102F071FFFEF76BF8FEE70100000027
:4021C000C85D000080B582B000AF194B194A1A60194A194B1B6843F40073136000237B600FE07B68032B04D8144A7B6852F8233000E0134B13497A6841F822307B68013326
:402200007B607B682F2BECD90F4B1B78DAB20F4B1A700F4B0B4A1A60FFF77EFE00F01CF80C4B00221A6000BF0837BD4680BD00BF0CED00E00004FA0514ED00E00000000018
:40224000C52000000080FF1FBC760040C480FF1F08ED00E0C080FF1F80B483B000AF134B7F221A70124B80221A707F23FB710CE0FB79DB0003F1804303F5F043FA79013AD3
:40228000D2B21A70FB79013BFB71FB79002BEFD1FB79DB0003F1804303F5F04300221A7000BF0C37BD4680BC704700BFD580FF1FD480FF1F80B483B000AF0346FB7101BE92
:4022C00000BF0C37BD4680BC704700BF80B582B000AF786008E00C4B1B68184602F0C4FB7B68A3F500437B607B68B3F5004FF2D8064B1B687A6802FB03F3184602F0B4FB83
:4023000000BF0837BD4680BDE880FF1FE080FF1F80B582B000AF0346FB80FB88054A127802FB03F3184602F09FFB00BF0837BD4680BD00BFE480FF1F80B582B000AF03466A
:402340000A46FB711346BB71BB79072B02D90020FFF7B0FFFB791F2B02D90020FFF7AAFFFB7903F01F0303F1604303F56443BA795201D2B21A7000BF0837BD4680BD00BF6E
:4023800080B500AF084B0F221A7000F09BF800F063F800F06FF8054B00221A70044B00221A7000BF80BD00BF876400408F6400408664004080B582B000AF02F05DFB034623
:4023C000FB71134A124B1B78DBB243F02003DBB21370104A0F4B1B78DBB243F01003DBB213700D4A0C4B1B78DBB243F01003DBB21370FB79184602F043FB00F0CFF800F03A
:402400001FF800F023F800BF0837BD4680BD00BF976400409F6400409664004080B500AF064B1B78002B04D1FFF7AAFF034B01221A70FFF7BFFF00BF80BD00BF9383FF1FC0
:4024400080B400AF00BFBD4680BC704780B400AF00BFBD4680BC704780B483B000AF044B1B78FB71FB7918460C37BD4680BC70476F64004080B483B000AF044B1B78FB7146
:40248000FB7918460C37BD4680BC70476664004080B483B000AF0346FB7100BF074B1B78DBB203F00403002BF8D0054AFB79137000BF0C37BD4680BC704700BF6F6400400E
:4024C0004364004080B582B000AF01E0124B1B78124B1B78DBB203F02003002BF6D102F0CBFA0346FB710E4A0D4B1B78DBB243F00103DBB213700A4A094B1B78DBB223F02B
:402500000103DBB21370FB79184602F0B9FA00BF0837BD4680BD00BF53640040666400409364004080B485B000AF0346FB710B4B1B78DBB223F00803FB730849FB79DB006C
:40254000DBB203F00803DAB2FB7B1343DBB20B7000BF1437BD4680BC704700BFC051004080B485B000AF0346FB710B4B1B78DBB223F01003FB730849FB791B01DBB203F028
:402580001003DAB2FB7B1343DBB20B7000BF1437BD4680BC704700BF3051004080B400AF094A094B1B78DBB243F00203DBB21370064A064B1B78DBB243F00203DBB213702D
:4025C00000BFBD4680BC7047A2430040B243004080B500AF064B1B78002B04D100F00AF8034B01221A7000F025F800BF80BD00BF9483FF1F80B400AF094B72221A70094B71
:4026000020221A70084B06221A70084B47221A70074B00221A7000BFBD4680BC704700BF886500408465004027650040376500408964004080B582B000AF02F01DFA03467E
:40264000FB71114A104B1B78DBB243F02003DBB213700E4A0D4B1B78DBB243F01003DBB213700B4A0A4B1B78DBB243F01003DBB2137000F07BF8FB79184602F001FA00BF8B
:402680000837BD4680BD00BF98650040946500409964004080B483B000AF044B1B78FB71FB7918460C37BD4680BC70474B65004080B483B000AF064B1B78DBB203F07F03CE
:4026C000FB71FB7918460C37BD4680BC704700BF6465004098B500AFFFF7EAFF03461B021CB2FFF7D7FF03461BB223431BB29BB2184698BD80B483B000AF0346FB7100BFED
:40270000074B1B78DBB203F00403002BF8D1054AFB79137000BF0C37BD4680BC704700BF696400404B64004080B584B000AF78600023FB810C4B1B78002B10D009E0FB894F
:402740007A6813441B781846FFF7D4FFFB890133FB81FB897A6813441B78002BEFD100BF1037BD4680BD00BF9483FF1F80B400AF094A094B1B78DBB243F01003DBB21370BD
:40278000064A064B1B78DBB243F01003DBB2137000BFBD4680BC7047A2430040B243004080B500AF064B1B78002B04D100F00AF8034B01221A7000F045F800BF80BD00BF56
:4027C0009683FF1F80B582B000AF1B4B1B78DBB223F03F03FB71184AFB7943F00903DBB21370164A154B1B78DBB243F00103DBB21370FF2000F036F8FF2000F051F8012043
:4028000000F05EF8002000F06BF802F035F90346BB710B4A0A4B1B78DBB243F01003DBB21370BB79184602F02BF900F02BF800BF0837BD4680BD00BF726400409665004021
:402840009264004080B400AF054A054B1B78DBB263F07F03DBB2137000BFBD4680BC70477264004080B483B000AF0346FB71044AFB79137000BF0C37BD4680BC704700BF09
:402880000665004080B500AF01E000F045F800F037F8034603F01003002BF6D100BF80BD80B483B000AF0346FB71044AFB79137000BF0C37BD4680BC704700BF466500406D
:4028C00080B483B000AF0346FB71044AFB79137000BF0C37BD4680BC704700BF2665004080B483B000AF0346FB71044AFB79137000BF0C37BD4680BC704700BF8264004059
:4029000080B400AF034B1B78DBB21846BD4680BC704700BF6264004080B400AF034B1B78DBB21846BD4680BC704700BF5665004080B483B000AF78607B6883F3108800BF30
:402940000C37BD4680BC704780B483B000AFEFF310837B6072B67B6818460C37BD4680BC704700BF80B400AF024B1B681846BD4680BC70476889FF1F80B500AFFFF7E4FF84
:402980000346184680BD00BF80B582B000AF78607868FFF7CDFF00BF0837BD4680BD00BF80B582B000AF78607B6843F00043184602F0BAF800BF0837BD4680BD80B582B0F9
:4029C00000AF7860786802F0AFF800BF0837BD4680BD00BF80B483B000AF0346FB7100BF0C37BD4680BC704780B582B000AF0346FB71FB790133DBB21846FFF7EBFF00BF1A
:402A00000837BD4680BD00BF80B582B000AF0346FB71FB791846FFF7DDFF00BF0837BD4680BD00BF80B483B000AF786000BF0C37BD4680BC704700BF80B483B000AF0346E8
:402A4000FB7100BF0C37BD4680BC704780B400AF00BFBD4680BC704780B400AF024B1B681846BD4680BC70473881FF1F80B500AF0120FFF7E1FF00BF80BD00BF80B400AF03
:402A800000BFBD4680BC704780B483B000AF7860044A7B68002142F8231000BF0C37BD4680BC7047A883FF1F98B500AF01F0BCFA04460A4B53F82430002B09D0074B00221A
:402AC00043F82420FFF7D2FF2046FFF769FF02E02046FFF773FF00BF98BD00BFC883FF1F80B582B000AF7860084A7B6852F82330032B07D1054A7B68022142F82310786878
:402B0000FFF7C2FF00BF0837BD4680BD1881FF1F80B582B000AF7860094A7B6852F823305A1E07497B6841F823207868FFF7D8FF786801F02FFB00BF0837BD4680BD00BF5C
:402B4000BC81FF1FB0B500AFFFF786FF054601F0E9FA0446B4F1FF3F20D0114B53F82420104B1B689A4219D9B5F1FF3F05D0FFF785FF0D4B022243F825200C4B53F8242083
:402B8000084B1B681343074A1360074B002243F824202046FFF746FFFFF786FF00BFB0BD845B00009C83FF1F1881FF1F1C5C0000B0B582B000AF7860FFF7DEFE0546022042
:402BC000FFF712FFFFF742FF7B68002B02DB7B68032B01DD032412E00E4A7B6852F82330002B01D104240AE07868FFF791FFFFF7B9FE0346002B01D1FFF7A4FF0024022085
:402C0000FFF702FF2846FFF7BFFE234618460837BD46B0BDBC81FF1F80B483B000AF78607B6883F3108800BF0C37BD4680BC704780B483B000AFEFF310837B6072B67B6863
:402C400018460C37BD4680BC704700BF80B500AFFFF7EEFF0346184680BD00BF80B582B000AF78607868FFF7D7FF00BF0837BD4680BD00BF80B483B000AF0346FB7100BF73
:402C80000C37BD4680BC704780B582B000AF0346FB71FB790133DBB21846FFF7EBFF00BF0837BD4680BD00BF80B582B000AF0346FB71FB791846FFF7DDFF00BF0837BD4630
:402CC00080BD00BF80B400AF00BFBD4680BC704780B584B000AFF860B9607A600B4AFB681B01134401221A60084AFB681B01134404337A681A60BB68013B1946F86800F04C
:402D0000C5F900BF1037BD4680BD00BF3099FF1FB0B584B000AFF860B9607A60FFF796FF05462A20FFF7B0FFFFF7CCFFFB68002B01D003244FE02D49FA6813465B00134438
:402D40009B000B441A682A4913465B0013449B000B441A68BB689A4227D37B68002B26D02249FA6813465B0013449B000B441A681F4913465B0013449B000B4408331A68A2
:402D80007B689A4211D81949FA6813465B0013449B000B441A68164913465B0013449B000B441A687B689A4201D2082413E0BB68002B01D108240EE00E4AFB681B01134441
:402DC0001B68002B01D0072405E07A68B968F868FFF77EFF00242A20FFF766FF2846FFF73DFF234618461037BD46B0BD745C0000585C00003099FF1F80B483B000AF78602E
:402E00007B6883F3108800BF0C37BD4680BC704780B483B000AFEFF310837B6072B67B6818460C37BD4680BC704700BF80B400AF024B1B681846BD4680BC70476889FF1FCC
:402E400080B500AFFFF7E4FF0346184680BD00BF80B582B000AF78607868FFF7CDFF00BF0837BD4680BD00BF80B582B000AF78607B6843F00043184601F056FE00BF08377D
:402E8000BD4680BD80B582B000AF7860786801F04BFE00BF0837BD4680BD00BF80B483B000AF0346FB7100BF0C37BD4680BC704780B582B000AF0346FB71FB790133DBB20A
:402EC0001846FFF7EBFF00BF0837BD4680BD00BF80B582B000AF0346FB71FB791846FFF7DDFF00BF0837BD4680BD00BF80B483B000AF786000BF0C37BD4680BC704700BF86
:402F000080B483B000AF0346FB7100BF0C37BD4680BC704780B400AF00BFBD4680BC704780B483B000AF0346FB7100BF0C37BD4680BC704780B400AF024B1B681846BD465F
:402F400080BC70473881FF1F80B500AF0120FFF7D7FF00BF80BD00BF80B400AF00BFBD4680BC704780B483B000AF7860044A7B68002142F8231000BF0C37BD4680BC7047BE
:402F8000A883FF1F98B500AF01F04EF804460A4B53F82430002B09D0074B002243F82420FFF7D2FF2046FFF75FFF02E02046FFF769FF00BF98BD00BFC883FF1F80B582B096
:402FC00000AF7860084A7B6852F82330032B07D1054A7B68022142F823107868FFF7C2FF00BF0837BD4680BD1881FF1F80B582B000AF7860094A7B6852F823305A1E07499B
:403000007B6841F823207868FFF7D8FF786801F0C1F800BF0837BD4680BD00BFBC81FF1FB0B500AFFFF786FF054601F07BF80446B4F1FF3F20D0114B53F82420104B1B687E
:403040009A4219D9B5F1FF3F05D0FFF785FF0D4B022243F825200C4B53F82420084B1B681343074A1360074B002243F824202046FFF73CFFFFF786FF00BFB0BD845B00006D
:403080009C83FF1F1881FF1F1C5C0000B0B483B000AF7860396037497A6813465B0013449B000B441D68344AEB0013445C68B4F1FF3F05D1304AEB0013447A685A6047E055
:4030C0002E4A2301134408331A683B689A4211D9294AEB0013447A685A60284A2301134408331A683B68D21A244923010B4408331A602DE0214A2301134408331B683A6845
:40310000D31A3B6025461D4A230113440C331C68B4F1FF3F07D0194A2301134408331A683B689A42E6D9B4F1FF3F0BD0134A2301134408331A683B68D21A104923010B44B6
:4031400008331A600D4A2B0113440C337A681A600A4A7B681B01134408333A681A60074A7B681B0113440C331C6000BF0C37BD46B0BC7047745C00001882FF1F3099FF1F2B
:4031800090B583B000AF786000247B68002B01D07B685C68002C01DB032C01DD03240AE0094B53F82430002B01D1042403E02046FFF71CFF0024002C02D02046FFF7B0FEA2
:4031C00000BF0C37BD4690BDBC81FF1FB0B582B000AF7860002400257B68002B03D07B685C687B689D68002C01DB032C01DD032427E0184B53F82430002B01D1012420E0E4
:40320000154B53F82430032B01D1072419E0134B53F824302B43114A42F82430104B53F824302B40002B0BD00B4B53F82430012B06D1094B022243F82420204600F0AAFFBE
:403240000024002C02D02046FFF76AFE00BF0837BD46B0BD3C5C00001881FF1FA883FF1FB883FF1F80B582B000AF78607B68002B02D07B68DB68984700BF0837BD4680BDF8
:4032800080B582B000AF78607B68002B1BD07B681B78032B16D801A252F823F0AD320000B5320000C5320000BD3200007868FFF767FF08E07868FFF789FF04E07868FFF7AD
:4032C000D1FF00E000BF00BF0837BD4680BD00BFF0B583B000AF7860524A7B68DB0013445C68504A7B6852F833305A1C4D497B6841F833204B4A7B6852F833104A487A6870
:4033000013465B0013449B0003441B68994204D9444A7B68002142F83310B4F1FF3F7DD0424A2301134408331B68002B6BD125462E463E4A2B0113440C331D68B5F1FF3F68
:4033400006D03A4A2B01134408331B68002BEFD0364A330113440C334FF0FF321A60314A7B68DB0013445D60B5F1FF3F0AD02F4A2B01134408331B685A1E2C492B010B4467
:4033800008331A602A4A23465B0023449B00134408331B78002B00D014E0254A23465B0023449B00134404331B68224A52F8232013469B0013449B001F4A13441846FFF7D1
:4033C0005FFF00BF2646194A230113440C331C68164A3301134404331B68002B0AD0134A3301134404331B68013B19463046FFF74DFE04E00D4A3301134400221A60B4F1FE
:40340000FF3FBFD10AE0094A2301134408331B685A1E064923010B4408331A6000BF0C37BD46F0BD1882FF1F585C00003099FF1F745C0000645C0000805C0000B0B582B051
:4034400000AF7860FFF7FCFC05463820FFF730FDFFF760FD7B68002B01D003240AE07868FFF736FFFFF7E2FC0346002B01D1FFF7D7FD00243820FFF72BFD2846FFF7E8FCFD
:40348000234618460837BD46B0BD00BF80B483B000AF78607B6883F3108800BF0C37BD4680BC704780B483B000AFEFF310837B6072B67B6818460C37BD4680BC704700BF39
:4034C00080B400AF024B1B681846BD4680BC70476889FF1F80B500AFFFF7E4FF0346184680BD00BF80B582B000AF78607868FFF7CDFF00BF0837BD4680BD00BF80B483B062
:4035000000AF0346FB7100BF0C37BD4680BC704780B582B000AF0346FB71FB790133DBB21846FFF7EBFF00BF0837BD4680BD00BF80B582B000AF0346FB71FB791846FFF761
:40354000DDFF00BF0837BD4680BD00BF80B400AF00BFBD4680BC704780B400AF024B1B681846BD4680BC70473881FF1FB0B582B000AF7860FFF7AEFF05462020FFF7C8FFF3
:40358000FFF7E4FFFFF7E8FF0446FFF799FF0346002B02D1B4F1FF3F01D1022410E00E4B53F82430002B01D1012409E00B4B53F824207B68DB431340084A42F8243000242B
:4035C0002020FFF7B5FF2846FFF78CFF234618460837BD46B0BD00BF3C5C0000A883FF1F80B483B000AF0346FB7100BF0C37BD4680BC704780B582B000AF0346FB71FB79DA
:403600000133DBB21846FFF7EBFF00BF0837BD4680BD00BF80B582B000AF0346FB71FB791846FFF7DDFF00BF0837BD4680BD00BF80B483B000AF0346FB7100BF0C37BD4652
:4036400080BC704790B583B000AF786039602220FFF7D0FF7B68002B02DB7B68032B01DD03241BE0164A7B6852F82330002B01D1012413E0134A7B6852F82330032B01D1EA
:4036800007240BE03B68002B01D10E2406E00E4A7B6852F823203B681A600024002C06D02046FFF7C5FF2220FFF7B4FF02E02220FFF7B0FF234618460C37BD4690BD00BF44
:4036C0003C5C00001881FF1FA883FF1F80B483B000AF78607B6883F3108800BF0C37BD4680BC704780B483B000AFEFF310837B6072B67B6818460C37BD4680BC704700BF94
:4037000080B400AF024B1B681846BD4680BC70476889FF1F80B500AFFFF7E4FF0346184680BD00BF80B582B000AF78607868FFF7CDFF00BF0837BD4680BD00BF80B582B01F
:4037400000AF78607B6843F00043184601F0ECF900BF0837BD4680BD80B582B000AF7860786801F0E1F900BF0837BD4680BD00BF80B483B000AF0346FB7100BF0C37BD4691
:4037800080BC704780B582B000AF0346FB71FB790133DBB21846FFF7EBFF00BF0837BD4680BD00BF80B582B000AF0346FB71FB791846FFF7DDFF00BF0837BD4680BD00BF6F
:4037C00080B483B000AF786000BF0C37BD4680BC704700BF80B483B000AF0346FB7100BF0C37BD4680BC704780B400AF00BFBD4680BC704780B400AF024B1B681846BD46B5
:4038000080BC70473881FF1F80B500AF0120FFF7E1FF00BF80BD00BF80B400AF00BFBD4680BC704798B500AF00F0FEFB04460A4B53F82430002B09D0074B002243F8242076
:40384000FFF7E2FF2046FFF779FF02E02046FFF783FF00BF98BD00BFC883FF1FB0B500AFFFF7C8FF054600F05DFC0446B4F1FF3F20D0114B53F82420104B1B689A4219D988
:40388000B5F1FF3F05D0FFF7C7FF0D4B022243F825200C4B53F82420084B1B681343074A1360074B002243F824202046FFF788FFFFF7B8FF00BFB0BD845B00009C83FF1FF6
:4038C0001881FF1F1C5C0000B0B582B000AF78603960FFF71FFF05461E20FFF753FFFFF783FF7B68002B02DB7B68032B01DD032437E0214A7B6852F82330002B01D1012460
:403900002FE01E4A7B6852F82330032B01D1072427E01B4A7B6852F823203B681A4318497B6841F82320174A7B6852F823203B681340002B14D0114A7B6852F82330012BEC
:403940000ED10E4A7B68022142F82310786800F021FCFFF7D5FE0346002B01D1FFF77EFF00241E20FFF71EFF2846FFF7DBFE234618460837BD46B0BD3C5C00001881FF1FB7
:40398000A883FF1FB883FF1F80B483B000AF78607B6883F3108800BF0C37BD4680BC704780B483B000AFEFF310837B6072B67B6818460C37BD4680BC704700BF80B400AFE4
:4039C000024B1B681846BD4680BC70476889FF1F80B500AFFFF7E4FF0346184680BD00BF80B582B000AF78607868FFF7CDFF00BF0837BD4680BD00BF80B582B000AF7860B9
:403A00007B6843F00043184601F08EF800BF0837BD4680BD80B582B000AF7860786801F083F800BF0837BD4680BD00BF80B483B000AF0346FB7100BF0C37BD4680BC704720
:403A400080B582B000AF0346FB71FB790133DBB21846FFF7EBFF00BF0837BD4680BD00BF80B582B000AF0346FB71FB791846FFF7DDFF00BF0837BD4680BD00BF80B483B038
:403A800000AF786000BF0C37BD4680BC704700BF80B483B000AF7860396000BF0C37BD4680BC704780B483B000AF0346FB7100BF0C37BD4680BC704780B400AF00BFBD46E1
:403AC00080BC704780B400AF024B1B681846BD4680BC70473881FF1F80B500AF0120FFF7E1FF00BF80BD00BF80B400AF00BFBD4680BC704780B400AF064B1B68064A52F876
:403B00002330044A1360034B1B681846BD4680BC704700BF3881FF1F2881FF1F98B500AF00F082FA04460A4B53F82430002B09D0074B002243F82420FFF7CEFF2046FFF733
:403B40005BFF02E02046FFF765FF00BF98BD00BFC883FF1F98B500AFFFF7B4FF04460D4B012243F82420FFF7BFFF0B4B53F82430DA430A4B1B681340084A136000212046E7
:403B8000FFF786FF064B012243F82420FFF7B2FF00BF98BD1881FF1F1C5C00009C83FF1FC883FF1F98B500AF00F0BCFA0446B4F1FF3F06D0164B53F82420164B1B689A42B2
:403BC00013D8FFF77FFF0446B4F1FF3F06D0124B002243F82420FFF77FFF02E00A20FFF761FF2046FFF708FF10E00B4B002243F824200A4B53F82420064B1B681343054AE8
:403C000013602046FFF73AFFFFF788FF00BF98BD845B00009C83FF1F1881FF1F1C5C0000B0B582B000AF7860FFF7D2FE05462420FFF706FFFFF740FFFFF744FF0446FFF784
:403C4000BDFE0346002B02D1B4F1FF3F01D1022424E0184B53F82430B3F1FF3F01D006241CE0154B53F82430002B01D1012415E0124B53F824207B681340002B0DD1104AED
:403C80007B6842F82430FFF765FFFFF78BFF0C4B002243F82420002400E000242420FFF7DFFE2846FFF79CFE234618460837BD46B0BD00BFFC81FF1F3C5C0000A883FF1FD3
:403CC000B883FF1F80B483B000AF7860034A7B68136000BF0C37BD4680BC70476C89FF1F80B483B000AF78607B6843F00043034A136000BF0C37BD4680BC70476C89FF1FBD
:403D000080B483B000AF786000BF0C37BD4680BC704700BF80B483B000AF0346FB7100BF0C37BD4680BC704780B400AF024B1B681846BD4680BC70473881FF1F80B500AF59
:403D40000120FFF7E7FF00BF80BD00BF80B400AF00BFBD4680BC704780B400AF054B1B68002B14BF01230023DBB21846BD4680BC704700BF5C89FF1F80B400AF00BFBD46B0
:403D800080BC704798B500AF00F04EF904460A4B53F82430002B09D0074B002243F82420FFF7CCFF2046FFF79BFF02E02046FFF789FF00BF98BD00BFC883FF1FB0B500AFDB
:403DC00000F0B0F90446FFF7AFFF0546B4F1FF3F21D0184B53F82420174B1B689A421AD9B5F1FF3F05D0FFF7B1FF144B022243F82520124B002243F82420114B53F824202C
:403E00000D4B1B6813430C4A13602046FFF778FFFFF7B8FF0CE0B5F1FF3F03D10A20FFF779FF02E00120FFF775FF2846FFF758FF00BFB0BD845B00009C83FF1F1881FF1FA5
:403E40001C5C000080B500AFFFF786FF0346002B02D0034B00221A60FFF78EFF00BF80BD5C89FF1F80B483B000AF78607B6883F3108800BF0C37BD4680BC704780B483B07B
:403E800000AFEFF310837B6072B67B6818460C37BD4680BC704700BF80B400AF024B1B681846BD4680BC70476889FF1F80B500AFFFF7E4FF0346184680BD00BF80B582B0C5
:403EC00000AF78607868FFF7CDFF00BF0837BD4680BD00BF80B483B000AF0346FB7100BF0C37BD4680BC704780B582B000AF0346FB71FB790133DBB21846FFF7EBFF00BFDC
:403F00000837BD4680BD00BF80B582B000AF0346FB71FB791846FFF7DDFF00BF0837BD4680BD00BF80B400AF00BFBD4680BC704780B400AF024B1B681846BD4680BC704738
:403F40003881FF1FF0B583B000AF7860FFF7F0FF0446FFF7A1FF0346002B0CBF01230023DBB21D46FFF7A2FF06461A20FFF7BCFFFFF7D8FF7B68022B01D903243BE0234A9C
:403F80007B6852F82330002B01D0012433E0002D0DD0B4F1FF3F08D01D4B53F824201D497B6851F823309A4201D9012423E0002D01D101241FE0184B53F8242017497B6876
:403FC00041F82320144A7B6842F824300F4A7B68012142F82310124B1A6812497B6841F823200C4A7B6852F823200D4B1B6813430B4A136000241A20FFF786FF3046FFF70E
:404000005DFF234618460C37BD46F0BDD883FF1F845B00004C5C0000FC81FF1F0C82FF1F9C83FF1F4099FF1F80B485B000AF344B1B881B0A9BB21A46324B9B5CFB7397F971
:404040000F30B3F1FF3F06D12D4B1B881A462D4B9B5CFB7303E0FB7B0833DBB2FB7397F90F30294A52F82330284A52F82330BB6097F90F30244A52F823307B6097F90F30D4
:4040800097F90F20204951F82220214951F822201D4941F823201F4B1A681D497B6841F823201C4A7B68136097F90F30164A52F82330B3F1FF3F14D197F90F30164A4FF008
:4040C000FF3142F8231097F90F30012202FA03F39BB2DB439AB20A4B1B8813409AB2084B1A800E4B1A680E49BB6841F823200B4ABB681360BB6818461437BD4680BC704786
:40410000A083FF1F505A00003C81FF1F1099FF1FDC81FF1FA483FF1F7C81FF1F3881FF1F2881FF1F80B483B000AF164B1B881B0A9BB21A46144B9B5CFB7197F90730B3F160
:40414000FF3F06D10F4B1B881A460F4B9B5CFB7103E0FB790833DBB2FB7197F90730B3F1FF3F02D14FF0FF3307E097F90730074A52F82330064A52F8233018460C37BD466B
:4041800080BC7047A083FF1F505A00003C81FF1F1099FF1F80B485B000AF7860224A7B6852F82330FB60214B1B68BB601F4B1B681F4A52F823301D4A13601E49BB687A6805
:4041C00041F823201A4ABB684FF0FF3142F82310194AFB6852F82330B3F1FF3F12D1174A7B6852F823301AB2154B1B881BB213431BB29AB2124B1A801249FB68BA6841F8BC
:40420000232007E00C4AFB6852F823300849BA6841F823200849FB68BA6841F8232000BF1437BD4680BC7047CC81FF1FA483FF1FDC81FF1F1099FF1F7C81FF1F845B0000D1
:40424000A083FF1F3C81FF1F80B400AF62B600BFBD4680BC704700BF80B483B000AF78607B6883F3108800BF0C37BD4680BC704780B483B000AFEFF310837B6072B67B686B
:4042800018460C37BD4680BC704700BF80B500AFFFF7DAFF00BF80BD80B500AF00F0B4FB0023184680BD00BF80B500AFFFF7E0FF0346184680BD00BF80B582B000AF7860AF
:4042C0007868FFF7C9FF00BF0837BD4680BD00BF80B582B000AF7860786800F025FC00BF0837BD4680BD00BF80B483B000AF0346FB7100BF0C37BD4680BC704780B582B01D
:4043000000AF0346FB71FB790133DBB21846FFF7EBFF00BF0837BD4680BD00BF80B582B000AF0346FB71FB791846FFF7DDFF00BF0837BD4680BD00BF80B483B000AF78604F
:4043400000BF0C37BD4680BC704700BF80B483B000AF0346FB7100BF0C37BD4680BC704780B483B000AF7860044A7B68002142F8231000BF0C37BD4680BC7047A883FF1FD5
:4043800080B582B000AF7860084A7B6852F82330032B07D1054A7B68022142F823107868FFF7DEFF00BF0837BD4680BD1881FF1F80B582B000AF7860094A7B6852F823300C
:4043C0005A1E07497B6841F823207868FFF7D8FF7868FFF7DFFE00BF0837BD4680BD00BFBC81FF1F80B485B000AF786039604FF0FF33FB607B68002B05D03B689B007A6886
:4044000013441B68FB60FB6818461437BD4680BC704700BFB0B584B000AF78600C4A7B6852F8335000240DE0094A7B68DB0013445B6821461846FFF7D5FFF860F868FFF7E7
:40444000B7FF0134AC42EFD300BF1037BD46B0BD985C000080B582B000AF78607B68002B02D17868FFF7D6FF00BF0837BD4680BD80B400AF00BFBD4680BC704780B400AF04
:40448000014B01221A60FEE76489FF1FF0B583B000AF78600025304B304ADA622E4B304A9A632D4B2F4ADA63FFF7FEFE06463220FFF724FF2C4B1B68002B01D007253DE068
:4044C000FFF7EAFE0346002B01D0182536E0274A7B681360244B01221A600720FFF736FFFFF7C6FF0020FFF731FF7868FFF7B2FFFFF718FE0446B4F1FF3F15D01C4B53F8C9
:4045000024201C4B1B6813431A4A13601A4B002243F824202046FFF70FFFFFF785FD03461846FFF7D5FE02E00A20FFF70FFF3220FFF7F4FEFFF7AAFEFFF7A0FF002D05D049
:404540003220FFF7EBFE3046FFF7B6FE2B4618460C37BD46F0BD00BF0080FF1FE94A0000AD4A0000050200006489FF1F4C99FF1F1C5C00009C83FF1F1881FF1F80B483B0B9
:4045800000AF78607B6883F3108800BF0C37BD4680BC704780B483B000AFEFF310837B6072B67B6818460C37BD4680BC704700BF80B400AF024B1B681846BD4680BC7047BD
:4045C0006889FF1F80B500AFFFF7E4FF0346184680BD00BF80B582B000AF78607868FFF7CDFF00BF0837BD4680BD00BF80B483B000AF0346FB7100BF0C37BD4680BC7047FC
:4046000080B582B000AF0346FB71FB790133DBB21846FFF7EBFF00BF0837BD4680BD00BF80B582B000AF0346FB71FB791846FFF7DDFF00BF0837BD4680BD00BF80B400AFF0
:4046400000BFBD4680BC704780B400AF024B1B681846BD4680BC70473881FF1FF8B500AFFFF7B0FF06460420FFF7CAFFFFF7E6FFFFF7EAFF0546FFF79BFF0346002B01D09D
:4046800002240DE00F4B53F82530B3F1FF3F01D0062405E00C4B4FF0FF3243F825200024002C05D10420FFF7BBFF284600F095FA0420FFF7B5FF3046FFF78CFF2346184671
:4046C000F8BD00BFFC81FF1FEC81FF1F80B483B000AF78607B6883F3108800BF0C37BD4680BC704780B483B000AFEFF310837B6072B67B6818460C37BD4680BC704700BF82
:4047000080B400AF024B1B681846BD4680BC70476889FF1F80B500AFFFF7E4FF0346184680BD00BF80B582B000AF78607868FFF7CDFF00BF0837BD4680BD00BF80B582B00F
:4047400000AF78607B6843F00043184600F0ECF900BF0837BD4680BD80B582B000AF7860786800F0E1F900BF0837BD4680BD00BF80B483B000AF0346FB7100BF0C37BD4683
:4047800080BC704780B582B000AF0346FB71FB790133DBB21846FFF7EBFF00BF0837BD4680BD00BF80B582B000AF0346FB71FB791846FFF7DDFF00BF0837BD4680BD00BF5F
:4047C00080B483B000AF786000BF0C37BD4680BC704700BF80B483B000AF0346FB7100BF0C37BD4680BC704780B400AF00BFBD4680BC704780B400AF024B1B681846BD46A5
:4048000080BC70473881FF1F80B500AF0120FFF7E1FF00BF80BD00BF80B400AF00BFBD4680BC704798B500AFFFF7FEFB04460A4B53F82430002B09D0074B002243F8242060
:40484000FFF7E2FF2046FFF779FF02E02046FFF783FF00BF98BD00BFC883FF1FB0B500AFFFF7C8FF0546FFF75DFC0446B4F1FF3F20D0114B53F82420104B1B689A4219D972
:40488000B5F1FF3F05D0FFF7C7FF0D4B022243F825200C4B53F82420084B1B681343074A1360074B002243F824202046FFF788FFFFF7B8FF00BFB0BD845B00009C83FF1FE6
:4048C0001881FF1F1C5C0000F0B583B000AF7860FFF790FF0446FFF713FF0346002B0CBF01230023DBB21D46FFF714FF06461C20FFF748FFFFF778FF7B68022B01D9032491
:404900003AE0234A7B6852F82330002B05D0214B53F824207B689A4201D005242CE0002D0DD0B4F1FF3F08D01B4B53F824201B497B6851F823309A4201D901241CE0002D0F
:4049400001D1012418E0134B53F82430144A52F82330104A42F824300D4A7B68002142F82310104A7B6852F823300F4A1360002D01D0FFF773FF00241C20FFF713FF3046B6
:40498000FFF7D0FE234618460C37BD46F0BD00BFD883FF1FFC81FF1F845B00004C5C00000C82FF1F4099FF1F9C83FF1F80B483B000AF78607B6883F3108800BF0C37BD465B
:4049C00080BC704780B483B000AFEFF310837B6072B67B6818460C37BD4680BC704700BF80B582B000AF78607868FFF7DFFF00BF0837BD4680BD00BF80B500AFFFF7E2FFA3
:404A00000346184680BD00BF90B583B000AF114B1B687B60FFF7F0FF044600F035F80E4A0D4B1B6843F07F4313607B6848330B4A1A6001210220FDF77FFC094A084B1B6802
:404A400043F0040313602046FFF7CAFF00BF0C37BD4690BD08ED00E020ED00E0D504000000E100E0000000000230800803D000BF01380046FCD17047EFF3108072B6704716
:404A800080F31088704700BF18484FF47F0102680A43026016486FF07F4102680A400260704714484FF080510160704772B611484FF000610160FFF781F90F48006800F0CA
:404AC0005BF958B10C4800684FF080730B4A0C490FB40FB46FF00600004700BF6FF0060062B6004762B600DF08B0704720ED00E01CED00E004ED00E06C89FF1F294B000078
:404B0000E54A0000EFF30880054908600548006880F3088870470248006880F3088870472482FF1FF480FF1F411C8900154A11440968154A136899421AD0F0B444464D468A
:404B400056465F46F0B400B5104C9B002344EFF308851D60116089002144096881F3088802BC8E46F0BCA046A946B246BB46F0BC002806DB00B500F0EBF802BC8E46FFF7AC
:404B8000D3BF7047505B00009883FF1FEC80FF1FF0B444464D4656465F46F0B400B5EFF3038308B48000174901440968164A0244EFF30883136088471448804704BC4FF0B2
:404BC0008070024382F3038801BC8646F0BCA046A946B246BB46F0BC704780000A4901440A6882F3088804BC4FF08070024382F3038808BC9E46F0BCA046A946B246BB4635
:404C0000F0BC7047745B00002099FF1F414C000080B400AF72B600BFBD4680BC704700BF80B500AFFFF7F4FF00BF80BD80B400AF024B1B681846BD4680BC70473881FF1FB8
:404C400098B500AFFFF7ECFFFFF7F0FF0446204600F02CF82046FFF7C0FF00BF80B483B000AF0346FB7100BF0C37BD4680BC704780B400AF024B1B681846BD4680BC70470A
:404C80003881FF1F80B500AF0120FFF7E7FF00BF80BD00BF98B500AFFFF7F4FFFFF7E8FF04462046FFF774FF00BF98BDB0B483B000AF78604FF0FF34124A7B6852F8235006
:404CC0000FE02C46104B53F824200E497B6841F823200E4B002243F824200A4A7B6852F82350B5F1FF3FECD1B4F1FF3F04D0084B53F82430074A1360234618460C37BD46AA
:404D0000B0BC7047FC81FF1F0C82FF1FD883FF1F4099FF1F9C83FF1F80B400AF62B600BFBD4680BC704700BF80B400AF72B600BFBD4680BC704700BF80B500AFFFF7ECFFA9
:404D400000BF80BD80B500AFFFF7EEFF00BF80BD80B582B000AF7860FFF7EEFFFFF79AFFFFF7F0FF00F0F2F8024B1B6818460837BD4680BD6C89FF1F80B485B000AF7860A5
:404D80000123FB607B68002B10DA7B6823F00043BB60BB680133084A52F82320074B1B689A4214BF01230023DBB2FB60FB6818461437BD4680BC7047505B00009883FF1F59
:404DC00080B483B000AF7860034A7B68136000BF0C37BD4680BC70476C89FF1F80B483B000AF78607B6843F00043034A136000BF0C37BD4680BC70476C89FF1F80B483B09E
:404E000000AF786000BF0C37BD4680BC704700BF80B483B000AF7860396000BF0C37BD4680BC704780B483B000AF0346FB7100BF0C37BD4680BC704780B400AF024B1B683F
:404E40001846BD4680BC70473881FF1F80B500AF0120FFF7E7FF00BF80BD00BF80B400AF00BFBD4680BC704780B400AF064B1B68064A52F82330044A1360034B1B6818463F
:404E8000BD4680BC704700BF3881FF1F2881FF1F80B483B000AF7860044A7B68002142F8231000BF0C37BD4680BC7047A883FF1F80B582B000AF7860084A7B6852F82330F1
:404EC000032B07D1054A7B68022142F823107868FFF7DEFF00BF0837BD4680BD1881FF1F80B483B000AF7860084A7B6852F8232007497B6851F823309A4201D1012300E011
:404F0000002318460C37BD4680BC7047BC81FF1F2C5C000098B500AFFFF786F804460A4B53F82430002B09D0074B002243F82420FFF78CFF2046FFF751FF02E02046FFF7C4
:404F40003FFF00BF98BD00BFC883FF1F80B584B000AFFFF771FFF860FFF780FF424B00221A60424AFB6852F823305A1C3F49FB6841F823203E4AFB6852F82330BB60F868D7
:404F8000FFF7AEFF0346012B03D0FA68BB689A4205D1384AFB68032142F8231004E0354AFB68022142F82310334AFB6852F82330DA43324B1B681340304A13600021F868A8
:404FC000FFF726FFFFF750FFF860BB68B3F1FF3F05D0B868FFF76CFFB868FFF7DBF8FFF7A1F878607B68B3F1FF3F12D1FB68B3F1FF3F07D01F4AFB68002142F82310FFF73A
:4050000025FF02E00A20FFF70DFFF868FFF7E6FE25E01B4A7B6852F82320184B1B689A420AD8144AFB68002142F82310FFF70EFFF868FFF7D3FE12E00E4A7B68002142F885
:4050400023100D4A7B6852F823200C4B1B6813430A4A13607868FFF7D1FEFFF75BFF00BF1037BD4680BD00BF5C89FF1FBC81FF1FEC81FF1F1881FF1F1C5C00009C83FF1FF0
:40508000845B00000A22002100F0AAB9014B1868704700BF8882FF1F0E4B70B51E460E4C0025E41AA410A54204D056F8253098470135F8E700F076FE084B094C1E46E41A34
:4050C000A4100025A54204D056F8253098470135F8E770BDB05D0000B05D0000B05D0000B85D0000024B0146186800F06BB800BF8882FF1F024B0146186800F017B800BF7C
:405100008882FF1F10B5431E0A44914204D011F8014B03F8014FF8E710BD03460244934202D003F8011BFAE77047000038B50546002944D051F8043C0C1F002BB8BFE41834
:4051400000F058F91E4A1368114613B96360146030E0A3420DD92268A018834201BF18685B681218226063600C6023E0A24203D813465A68002AF9D118681918A1420BD1B0
:405180002168014458188242196013D110685268014419605A600DE002D90C232B6009E021686018824201BF106852680918216062605C602846BDE8384000F01CB938BD5F
:4051C000E883FF1F70B5CD1C25F0030508350C2D38BF0C25002D064601DBA94202D90C23336046E000F006F9234B1C681A462146A1B10B685B1B0ED40B2B03D90B60CC1834
:40520000CD501EE08C420BBF63684B681360636018BF0C4615E00C464968E9E7174C23681BB9304600F02CF820602946304600F027F8431C18D0C41C24F00304A0420DD154
:405240002560304600F0D7F804F10B00231D20F00700C31A0ED05A42E25070BD211A304600F00EF80130EBD10C233360304600F0C2F8002070BD00BFE883FF1FE483FF1FD7
:4052800038B5064C0023054608462360FCF724FF431C02D1236803B12B6038BD509BFF1F10F8012B11F8013B012A28BF9A42F7D0D01A7047034611F8012B03F8012B002AC2
:4052C000F9D17047034613F8012B002AFBD1181A013870472DE9F0470F4680463F48D0F800903D4615F8014B09EB0400407800F0080000F0FF0608B12F46F2E72D2C03D1A1
:40530000BD1C7C78012603E02B2C04BF7C78BD1C13B1102B0AD15BE0302C57D1287800F0DF0058284DD16C7810230235002E14BF4FF0004C6FF0004CBCFBF3FA002738463B
:4053400003FB1ACC09EB040E9EF801E01EF0040F01D0303C0BE01EF0030E1BD0BEF1010F0CBF4FF0370E4FF0570ECEEB0404A34210DDB7F1FF3F0AD0504506D801D1644586
:4053800003DC03FB0040012701E04FF0FF3715F8014BD7E77B1C0CD1002E4FF0220314BF4FF000406FF00040C8F800302AB9BDE8F08706B1404272B107B1691E1160BDE8A4
:4053C000F0873024002BB1D10823AFE70A23ADE7302CA3D0AAE7BDE8F08700BF8C82FF1F13460A46014602480068FFF773BF00BF8882FF1F704770470000000055415254F1
:40540000204A534F4E2050415253455221200D0A000000004D656D6F727920616C6C6F6B6174696F6E206661696C65642100000052435F4552524F525F4255464645525F6A
:40544000454D5054590000000FB103053C3CB203053C3CB306053C3C053C3CB40103C003280804C101C0C2020D00C3028D2AC4028DEEC5011A3601C0E0100422070A2E305D
:40548000252A28262E3A00010313E10F16060D2D26232727252D3B000104133A0105290000000000003E5B4F5B3E3E6B4F6B3E1C3E7C3E1C183C7E3C181C577D571C1C5E90
:4054C0007F5E1C00183C1800FFE7C3E7FF0018241800FFE7DBE7FF30483A060E2629792926407F050507407F05253F5A3CE73C5A7F3E1C1C08081C1C3E7F14227F22145F91
:405500005F005F5F06097F017F006689956A606060606094A2FFA29408047E040810207E201008082A1C08081C2A08081E101010100C1E0C1E0C30383E3830060E3E0E06A5
:40554000000000000000005F00000007000700147F147F14242A7F2A12231308646236495620500008070300001C2241000041221C002A1C7F1C2A08083E08080080703099
:40558000000808080808000060600020100804023E5149453E00427F400072494949462141494D331814127F1027454545393C4A49493141211109073649494936464949C4
:4055C000291E0000140000004034000000081422411414141414004122140802015909063E415D594E7C1211127C7F494949363E414141227F4141413E7F494949417F0909
:405600000909013E414151737F0808087F00417F41002040413F017F081422417F404040407F021C027F7F0408107F3E4141413E7F090909063E4151215E7F0919294626C2
:405640004949493203017F01033F4040403F1F2040201F3F4038403F631408146303047804036159494D43007F4141410204081020004141417F0402010204404040404046
:40568000000307080020545478407F284444383844444428384444287F385454541800087E090218A4A49C787F0804047800447D40002040403D007F1028440000417F402D
:4056C000007C047804787C080404783844444438FC1824241818242418FC7C08040408485454542404043F44243C4040207C1C2040201C3C4030403C44281028444C9090D7
:40570000907C4464544C4400083641000000770000004136080002010204023C2623263C1EA1A161123A4040207A38545455592155557941225454784221555478402054B6
:405740005579400C1E5272123955555559395454545939555454580000457C410002457D420001457C407D1211127DF0282528F07C545545002054547C547C0A097F493255
:40578000494949323A4444443A324A4848303A4141217A3A42402078009DA0A07D3D4242423D3D4040403D3C24FF2424487E4943662B2FFC2F2BFF0929F620C0887E0903B9
:4057C00020545479410000447D413048484A32384040227A007A0A0A727D0D19317D2629292F28262929292630484D4020380808080808080808382F10C8ACBA2F102834D1
:40580000FA00007B000008142A142222142A14085500550055AA55AA55AAFF55FF55FF000000FF00101010FF00141414FF001010FF00FF1010F010F0141414FC001414F7BF
:4058400000FF0000FF00FF1414F404FC141417101F10101F101F1414141F00101010F0000000001F101010101F10101010F010000000FF101010101010101010FF1000005C
:4058800000FF140000FF00FF00001F10170000FC04F414141710171414F404F40000FF00F714141414141414F700F7141414171410101F101F141414F4141010F010F0008A
:4058C000001F101F0000001F14000000FC140000F010F01010FF10FF141414FF141010101F00000000F010FFFFFFFFFFF0F0F0F0F0FFFFFF0000000000FFFF0F0F0F0F0F6A
:405900003844443844FC4A4A4A347E02020606027E027E0263554941633844443C04407E201E2006027E020299A5E7A5991C2A492A1C4C7201724C304A4D4D303048784811
:4059400030BC625A463D3E494949007E0101017E2A2A2A2A2A44445F444440514A444040444A51400000FF0103E080FF000008086B6B083612362436060F090F0600001872
:40598000180000001010003040FF0101001F01011E00191D1712003C3C3C3C000000000054465400427566666572206F766572666C6F7700566572626F736500496E666F72
:4059C000000000005761726E696E67004572726F7200000044656275670000004F666600000000000A00000055415254207374617274656400000000203A200072656400B3
:405A0000405100403000F0510040100000000140000C800C0140800300140140000800400140000A004C0140000210500140100060520040D00D00480600000C0140D80DC0
:405A40000048800000500140580E004810000000FF00010102020202030303030303030304040404040404040404040404040404050505050505050505050505050505055E
:405A80000505050505050505050505050505050506060606060606060606060606060606060606060606060606060606060606060606060606060606060606060606060676
:405AC00006060606060606060606060606060606070707070707070707070707070707070707070707070707070707070707070707070707070707070707070707070707F6
:405B000007070707070707070707070707070707070707070707070707070707070707070707070707070707070707070707070707070707070707070707070707070707A5
:405B4000070707070707070707070707070707070000000000000000000000000100000000000000954C0000954C0000954C0000954C0000D9020000550400001D030000DC
:405B8000CD0400008000000020000000200000000100000074736B5F696E69740000000074736B5F7466740074736B5F6A736F6E0000000074736B5F6261636B726F756E7E
:405BC000640000007265735F554152544C4F475F72696E6762756666657200007265735F6D657373616765626F7800007265735F6472617765725F524200000000000000F9
:405C0000010000000200000065765F656E644F66537472696E67000001000000800000002000000020000000010000000100000001000000010000000100000000000000FE
:405C400000000000010000000000000020000000200000002000000040420F00010000000000000000000000616C6D5F74667400000000000000000000000000000000004A
:405C800000000000010000000000000000000000FFFFFFFF0000000001000000945C00004300002020202020202020202828282828202020202020202020202020202020EB
:405CC000202020881010101010101010101010101010100404040404040404040410101010101010414141414141010101010101010101010101010101010101010110107A
:405D0000101010104242424242420202020202020202020202020202020202020202101010102000000000000000000000000000000000000000000000000000000000000F
:405D40000000000000000000000000000000000000000000000000000000000000000000000000000000000000000000000000000000000000000000000000000000000023
:405D8000000000000000000000000000000000000000000000000000000000000000000000000000F8B500BFF8BC08BC9E4670474D000000C5210000F8B500BFF8BC08BC4D
:405DC0009E46704729000000D85D0000C880FF1FC8010000C818000000000000A0590000589BFF1F807F00000300000000366E01C05D0000180000000000E02E00000000A7
:405E0000E898FF1F509BFF1F945B0000A05B0000A85B0000B45B0000C45B0000DC5B0000EC5B0000085C000003000000030000000300000003000000FFFFFFFFFFFFFFFFBA
:405E4000FFFFFFFFFFFFFFFFFFFFFFFFFFFFFFFFFFFFFFFFFFFFFFFFFFFFFFFFFFFFFFFFFFFFFFFFFFFFFFFFFFFFFFFFFFFFFFFFFFFFFFFFFFFFFFFFFFFFFFFFFFFFFFFF62
:405E8000FFFFFFFFFFFFFFFFFFFFFFFFFFFFFFFFFFFFFFFFFFFFFFFFFFFFFFFFFFFFFFFFFFFFFFFFFFFFFFFFFFFFFFFFFFFFFFFFFFFFFFFFFFFFFFFFFFFFFFFFFFFFFFFF22
:405EC000FFFFFFFFFFFFFFFFFFFFFFFF0100000001000000010000000100000007000000050000000500000000000000010000000200000003000000FFFFFFFFFFFFFFFF9B
:405F0000FFFFFFFFFFFFFFFFFFFFFFFFFFFFFFFFFFFFFFFFFFFFFFFFFFFFFFFFFFFFFFFFFFFFFFFFFFFFFFFF00000000FFFFFFFF685C0000000000000000000000000000C9
:405F4000000000000000000000000000000000000000000000000000A05C000000000000000000000000000000000000000000000000000000000000000000000000000025
:405F80000000000000000000000000000000000000000000000000002882FF1FA25C000000000000000000000000000000000000000000000000000000000000000000001B
:405FC00000000000000000000000000000000000000000000000000000000000000000000000000000000000000000000000000000000000000000000000000000000000A1
:406000000000000000000000000000000000000000000000000000000000000000000000000000000000000000000000000000000000000000000000000000000000000060
:406040000000000000000000000000000000000000000000000000000000000000000000000000000000000000000000000000000000000000000000000000000000000020
:4060800000000000000000000000000000000000000000000000000000000000000000000000000000000000000000000000000000000000000000000000000000000000E0
:020000040003F7
:0200000480007A
:4000000006520040015B004006640040036500400201014053020140470301405304014055050140350601405007014035080140570901404F0A0140500B0140090C0140E3
:40004000590D01403F0E0140320F014030140140511501403F160140581701403A1801404D190140441A01405C1B01400C400140134101400F4201400743014004440140FE
:400080000845014009460140084701400248014007490140154C01400A4D014003500140025101400004010208CC0999102011302784820D840D850D870F880D890F84384A
:4000C000870288728B40E6010501080409010A030C080D0113011408181119011A261C60200821012425261228132A442B012C08320733013408367038A03A083E105280F4
:400100005405580459045B045C315D205F018A018E0196049A029B02A501A60AAB01AD02B008B101B204B401B502B602C023C104C250C5BCC6FEC7DBC83FC9FFCAFFCBFFFF
:40014000CC22CEF0CF08D004D280D804D904DA04DB04DD01DF01E2C0E440E501E610E711E8C0E901EB11EC40ED01EE40EF0100600410070109040A080C040D200E0110202B
:40018000152816011702180819081A021B011C101E011F2020082380272029082B052D202F4030203410350237103C043F504114430248824A1050085101521053815E883B
:4001C0005F0171027680820185418601870188A089108B408D228F0291209780A780AB80AD10C0C3C2E6C4F4CAAECCA4CE70D007D208D6D0E008E40AEA02EC0C03020A0210
:400200000B010E011308150416011B041E04230126042A08300831023202330834013501360437043E103F104040410249FF4AFF4BFF4DA04F045018528054055804590416
:400240005A045B045F01604062C06440654066C068C06AC06CC06EC084018A019001940198019C01A001B201C050C103C5D0C620C701C81AC9FFCAFFCBFFCDAFCE0FCF0444
:40028000D018D405D804D904DA04DB04DC33DF01E040E2C0E440E540E6C0E8C0EAC0ECC0EEC000600404052009080A020C100E020F5011181440184019441A041F082101ED
:4002C0002245230828802C502F60310632203522360138023A203C043F504080412146204D014E0155245620570459015A845D015F887001828087088B048E1090109110E3
:4003000093029444960897D1981099029A909B809D609F02A008A102A412A504A644A704AB10AC04AE01AF20B004B104B210B404B720C063C2F5C416CAC1CCA7CE75D04538
:40034000D210D6DBE645EA04EC02EE100F0115081A011B022A012F0E310233013401350437083E105440580459045B045C235D105F019801A401B201B808BE04C040C10387
:40038000C5D1C702C813C9FFCAFFCBFFCDA0CF04D018D602D728D804D904DA04DB04DC33DD10DF01E040E2C0E440E540E6C0E8C0EAC0ECC0EEC00004012004040520062082
:4003C00008500A800B180C400F581108120413401420175019041E08250126482718286029202A042B202F0232403360371838043B503E8040404108481049014A20510890
:40040000601066186702682069116A4071808104820884808510882089918E4090509220930A940497D198409A909D21A008A280A320A410A508A664A802AB02B204C06676
:40044000C2FFC4E7CA15CC6CCE1ED003D872E002E204E601EA04000C01140223041005DC072208210A0E0C100F03121013201410151017AC1A081E0C2010210923D0251051
:40048000261027402821290C2A062B712C402E033210340F35E03660371F38803A203B203E045405580459045B045C445F019D01B301BF04D401D904DB04DC30DD40DF0163
:4004C00006A00705080209010D800E200F84148A15041D801E041F48220424082540270429042A012B042D202E082F40301432013380340A39023A083B043D803E043F024C
:400500004201434058015A285B405D025E085F4068A069907051731078017B8081408308870488908A328B098C018F4091049221934895219646980899069B109CD29E0319
:400540009F0DA104A224A381A410A581A610A744AB02AD40B025B240C0F0C2F0C4F0CAE7CCCFCED1D6DFE0A1E204E4E0E8820202040108040D01120114041A042204230361
:40058000260430033501360437023E40520353025804590C5B045C395D305F01830884038501860C8730881089078C1092109410980399649A049E089F10A010A307A403F4
:4005C000A604A708A80AAA04AB52AE05B010B170B308B40FB610B707BA20BE41BF44C024C103C50CC60EC7B0C825C9FFCAFFCBFFCEF0CF44D00CD401D804D904DA04DB0CC7
:40060000DC14DD34DF01E6C0EA40EB02000402800304072908080A840C210D800E200F801020110214821520170419011A811E021F22200C214025402604274029012C40F2
:400640002E082F043620374039803C023D083F104408450147244C204E1057815E80695079407D40814089108C0C8F20910493589501964299069A089B109CB19E039F49BC
:40068000A104A2A0A410A601A744AA01B130B341C0EEC2FEC4FCCAE1CC30CEE8D0E0D610DE18E2C0E641E8B0EC02EE80A201B201D608D804D904DB04DC33DD90DF01000889
:4006C000020804010620070508100A120D880E080F8010041101120114801602170819041A101F022429256426242704280429042A012B042C012E022F0430103209348022
:400700003620370939023D883F02442046084D025440560858406280740185048710884589018A208B408D048F049308942995109652978098409B109C949D049E039F4917
:40074000A188A208A414A504A621A743A808AB40AC40AD08C0F6C2F7C4BBCAB7CCF7CED1D060D608D808E020E2C0E488E660EC010601140118011C01260128012C01300158
:40078000580459045C335F018002810184218507868E8718881789018A288CD28D018E0490D69101942995409646982099229AD09B089C049D01A0D6A110A380A4D6A504BF
:4007C000A908AB21ACD0AD40AE06B20FB380B4F0B53FB601B740B808B9A0BA20BE40BF10D409D804D904DB04DC11DD10DF01000C0429070109200A120D080E080F821014D0
:4008000012011480160217081A801D481E081F042580271428042A012D042F46301031043201348036203705380439013C213D083F805C085D105E426540824089A58A0858
:40084000C0F4C2F7C4B7CAF5CCF7CEF3D6F0D810E48000040340051C07A208010B830D1C0E040FA1121013401408150419A71A011B181F04200221BF2508260829182A0203
:400880002D103120331F341F35403798382039023B883E103F1054185604580459045B045C435D405F018701B501D804D904DC33DF010080010203240440052208400929DF
:4008C0000A040B200D080F40112513401501170419201B20202021442221270C280529012A042F1830203184320134403522370439A83B023D013E0458405A805B016082BA
:40090000622084108510880789028D458F0190409105928093409A049B019C809D209F08A060A1B9A308A810AA04AD20AF49B118B202B348B440B620C0DFC23FC43FCA6F3D
:40094000CCFFCECFD601D80DE008E202E402E80CEA03EC024060410245D04712483249FF4AFF4BFF4DA04F045018580459045A045C335D025F01604062C06440654066C0EE
:4009800068C06AC06CC06EC08A048E089003910194039C02A601B008B101B204B603B880BE40BF01C001C640C9FFCA07CBFFCC40CD20CEF0CF05D008D602D739D804D90469
:4009C000DA04DB0FDC33DD34DF01E040E1A8E240E320015004400520080209400A200E040F5012201440162018401A801B88220128402B202E042F68311232403308353074
:400A0000360239013A203C403F104380450846284A204E084F0151105608570658106104685069D6705071207A8081C08420850186018710881889018C408D1192209520E2
:400A4000968097D1985299049C809D209E20A008A142A288A320A706A802AD40B102B501C0C3C27DC434CAE3CCAFCE35D028D220D604D802DE01E001E20AE402E601EA12BD
:400A8000EE010001010806080802090C0C200DEF0E101010122013E314081582184019411A801B101DE31E021F0C21C32201240425042880290F2A402BE02D2C2E042FC3E3
:400AC000312C32FF33C03510370F3A023B803E0456025711580459045B045C445D405F0186018A0296019801B001B602BE01D804D904DC33DF010230030404040545072473
:400B0000080809240B080D010E010F18158416451A431C401F0824082508268027412A082B042CA82F0230143201352036823708380439803C403E225C106C026E187460B8
:400B400076228004820486018701880189058B108F0C911093089503964299049B109C549E01A104A220A501A704A854A920AD10AE84B140B310B4A0C0F6C2F6C4F0CAF69E
:400B8000CCF7CEBAD620E020E210E4B2E805EE2007013701580459045C335F0181128220838C86018810893F8C109108922093709410953F980499249A039B8A9E0CA01087
:400BC000A408A603A801AA02AD01AE02B101B210B3C0B420B506B60FB738BE14BF04C045C103C201C402C50EC60CC805C9FFCAFFCBFFCC62CDA0CEF0CF41D00CD804D90411
:400C0000DA04DC41DD04DF01E640E702E910EA30EB10ED10EE10EF12024003A0044005800604075008040A810C400D200E020F901090114013021409161017011C101E0264
:400C40001F102002214022402612272A2A082BA02C023014310432413614370239443D023E10450447614D084E0257408602871288418A208B108C088DAD8E0490409144D2
:400C8000921394109580981999049A789B519C409D209F08A042A120A204A488A602A702A820A901AC14AD18AE40B141B208B320B541B704C0FCC2FDC4F5CA13CCEFCEAA2B
:400CC000D0F0D210E2F0E412E6E0E8F0EC08EE201040168030803201361038083E808310C430CC70CE60E680070808010E405202531057108240840194089602A310A480B0
:400D0000A610AC40C080C230D4E0E060EC105220800487108C80940896029720A480AE10AF08B602D420E6C0E810EE1086019602A620A708AB08E640EC8071027C80DC0165
:400D4000DE045220608066028602A502A880D404D8031B0824208308A502AE20B480C608C801E8084608801083208C089020AD02D004E002A708B62003081A028601A7089F
:400D8000C040C640E4405380551059015B205D805F08610864088740980899819B289E08A118A909B308B590D407D607D803EC0B1220734086088E2093409E08AF80C4086F
:400DC000DC01E208101E1A1C1C1A003F100A000010840000400000008008001000719F827F008000C0A4044090644008006CFF001FC0202F006C6000C040012CC000020004
:400E00000091004EC02C0840FF00000F003100C0000000B0000001003002000000D0010216FFFFFF00A00004180080000000000004040404100000014000C0004040C0003A
:400E4000C000C000C000C000000000000000000000000000000000001F010000000000000F000F001B010B0138C0C00000070700800040BCBC00B4000000000000FFFF005C
:400E8000FF00000000393900380000000438380000000000000100000000000000000000000000000000000000000000000000000000000000000000000000000000000014
:400EC00000000000000000000000000000000000000000000000000000000000000000000000000000000000000000000000000000000000000000000000000000000000F2
:400F000000000000000000000000000000000000000000000000000000000000000000000000000000000000000000000000000000000000000000000000000000000000B1
:400F40000000000000000000000000000000000000000000000000000000000000000000000000000000000000000000000000000000000000000000000000000000000071
:400F80000000000000000000000000000000000000000000000000000000000000000000000000000000000000000000000000000000000000000000000000000000000031
:0200000490006A
:0400000000004007B5
:0200000490105A
:04000000BC90ACAF55
:0200000490303A
:02000000AAD381
:0200000490402A
:4000000000000000000000000000000000000000000000000000000000000000000000000000000000000000000000000000000000000000000000000000000000000000C0
:400040000000000000000000000000000000000000000000000000000000000000000000000000000000000000000000000000000000000000000000000000000000000080
:400080000000000000000000000000000000000000000000000000000000000000000000000000000000000000000000000000000000000000000000000000000000000040
:4000C0000000000000000000000000000000000000000000000000000000000000000000000000000000000000000000000000000000000000000000000000000000000000
:0200000490501A
:0C00000000012E12706900012E3D1B3C17
:00000001FF